:0300000002078C68
:0C078C00787FE4F6D8FD7581570207D392
:1005B900506172616D20496E6974006572726F7263
:1005C9002100737563636573732100456D707479D8
:1005D9000A004E6F7420456D7074790A00626F7855
:1005E900206F70656E65640A00426F78204F7065F0
:1005F9006E656400506C6561736520636C6F73652B
:1006090020697400426F7820436C6F7365640062DF
:100619006F7820636C6F7365640A00466565646969
:100629006E672E2E00666565642073746172740AA4
:1006390000436C6F7365696E672E2E00436C6F7390
:1006490065640046656564206F7665720A0032301C
:10065900004E4F2073746F72656420666F6F64215A
:100669000041004665656420506C616E3A0054692A
:100679006D653A0057543A003067006D616E7561D7
:100689006C206F70656E004D4F50454E0A006D61CC
:100699006E75616C20636C6F7365004D434C4F53ED
:0506A900450A004D00B0
:100900000A13000000000000000000000A080000B8
:100910000000000000000000011200011E01C18063
:05092000C101011D00F2
:10000300E4FFFEE4FDFC0DBD00010CED64144C7037
:0C001300F50FBF00010EBE17EABF70E73A
:01001F0022BE
:0E0F1400E4FFFE0FBF00010EEF64C84E70F543
:010F220022AC
:100E5100AE071FEE60107CEA7D60ED1DAA047001F3
:060E61001C4A60EC80F465
:010E67002268
:10089800E4F548E54825E0FF120DAD8F49E54964C8
:1008A80025602074132548F8A649E54825E004FF8B
:1008B800120DAD74082548F8A6070548E548C39405
:1008C8000A40D0854812120F707BFF7A0579B9E487
:1008D800FD7F01120CCFE5487BFFB401067A05794C
:1008E800C480047A0579CB7D017F04120CCF1200F5
:0708F80003120F70751E14BE
:0108FF0022D6
:0C0F4E00E4F590120E68120EA90208983B
:030020007F01223B
:100B6E00E4F547120E7E120F14E4FFE512FDEFFBC3
:100B7E003395E0FAC3EB9D7480F86A98501B74139A
:100B8E002FF8E6B532107413251EF8E6B532028042
:0B0B9E00088F1E7547010F80D2AF4783
:010BA9002229
:100BAA00120E06120F14E47FE87E03FDFCAB53AA73
:100BBA0052A951A850D3120307400E7BFF7A057938
:100BCA00D4120CA7D2007F012230000B7BFF7A05DA
:0A0BDA0079DB120CA7C2007F002295
:100C4E007590F0120F14E59054F0F51D64F06012DB
:100C5E00120F147590F0E59054F0F51DB4F003E406
:0D0C6E00F51DE51DB47005B201E4F51D2271
:100A140020B34A7BFF7A0579E6120CA77BFF7A059F
:100A240079F2E4FDFF120CCF120003120F707BFF6A
:100A34007A0579FDE4FDFF120CCF30B3FD120F707F
:100A44007BFF7A06790DE4FDFF120CCF7BFF7A065B
:0E0A54007918120CA7D200120003120F7022A4
:10096700C2AF120F707BFF7A067924E4FDFF120CE9
:10097700CF7BFF7A06792E120CA7120D4474082537
:100987001EF8E6FF120E51120F707BFF7A06793AB6
:10099700E4FDFF120CCF120D67120F707BFF7A0672
:1009A7007945E4FDFF120CCF120003120F707BFF95
:0C09B7007A06794C120CA7D200C2AF22C5
:1006AE007BFF7A067957E4FDFF120CCFE536C45472
:1006BE000F4430FBE4FD7F02120DCFE536540F449C
:1006CE0030FBE4FD7F03120DCF7B2DE4FD7F041282
:1006DE000DCFE534C4540F4430FBE4FD7F05120DFD
:1006EE00CFE534540F4430FBE4FD7F06120DCF7B73
:1006FE002DE4FD7F07120DCFE533C4540F4430FBBC
:10070E00E4FD7F08120DCFE533540F4430FBE4FDBA
:10071E007F09120DCFE532C4540F4430FB7D017FAB
:10072E0006120DCFE532540F4430FB7D017F0712C8
:10073E000DCF7B3A7D017F08120DCFE531C4540FEA
:10074E004430FB7D017F09120DCFE531540F44304B
:10075E00FB7D017F0A120DCF7B3A7D017F0B120DBF
:10076E00CFE530C4540F4430FB7D017F0C120DCF0A
:0E077E00E530540F4430FB7D017F0D020DCF9E
:10032B00D202E4F546120F4E120A14120BAAEF601A
:10033B0016120F707BFF7A06795A7D01E4FF120CBF
:10034B00CF120003120F701204A7120C4E120F7073
:10035B00300103020436120B6EEF6003120967E5DE
:10036B001DB4B014B202E4F51DE51ED39512400581
:10037B00E4F5468003851E46E51DB4D01A0546AD4F
:10038B0046ED3395E0FCC3ED95127480F86C984004
:10039B0003E4F546E4F51DE51DB4E0131546C3E58E
:1003AB0046648094805005E51214F546E4F51D7BF8
:1003BB00FF30020E7A06796AE4FD7F0F120CCF0232
:1003CB00049E7A06796CE4FDFF120CCF7BFF7A0654
:1003DB0079777D01E4FF120CCF74132546F8E6C440
:1003EB00540F4430FB7D017F05120DCF741325464E
:1003FB00F8E6540F4430FB7D017F06120DCF7BFFD7
:10040B007A06797D7D017F08120CCF74082546F89A
:10041B00E6FF120C7B7D017F0B120CCF7BFF7A0664
:10042B0079817D017F0E120CCF806B120B6EE51D57
:10043B00B4B006120967E4F51DE51DB4D0217BFFAE
:10044B007A0679847D01E4FF120CCF7BFF7A067963
:10045B0090120CA7D200120D44120F70E4F51DE59B
:10046B001DB4E0217BFF7A0679977D01E4FF120C26
:10047B00CF7BFF7A0679A4120CA7D200120D67125C
:10048B000F70E4F51D7BFF7A0679ACE4FD7F0F124C
:0C049B000CCF001206AE1200200203334A
:100925000121000B23000000000000000000000072
:030935000122009C
:100E6800759850758920758780758DFD758BFDC2C5
:060E7800ACD2AFD28E22C5
:03002300020AAC22
:0D0AAC00C0E0C0D075D000C000C006C0077B
:100AB900752EC3752F50AF99BF0A0E752E00752F6D
:100AC900007521007522018011AE21052174232EA4
:0C0AD900F8A60774232521F87600C298C7
:0B0AE500D007D006D000D0D0D0E03207
:100E3900752EC3752F50D2ACE52F152FAE2E70022B
:080E4900152E4E70F3C2AC221D
:100CA7008B488A49894AAB48AA49A94A12028B60EC
:100CB70016054AE54A7002054914F912028BF5999F
:080CC7003099FDC29980DF2283
:100CF7008B488A49894AAF051DEF601AAB48054AF8
:100D0700E54AAA497002054914F912028BF5993090
:070D170099FDC29980E02262
:0609380004540408010252
:100D44007549FAE4F54874542548120EBD0548E582
:100D540048C3940440F01549E549D3940150E4E4B0
:020D6400F59008
:010D6600226A
:100D67007549FA75480474532548120EBD1548E5B0
:100D770048D3940050F0E4F5901549E549D3940120
:020D870050E139
:010D89002247
:080EBD00F8E6F5907FEE7E02DD
:0B0EC500EF1FAC0670011E4C70F622FF
:100ED0007580FFC2A6D2A5D2A7AF80C2A7EF20E738
:010EE000F61B
:010EE10022EE
:100EF400AE07120ED0C2A6C2A58E80D2A7C2A72268
:100F0400AE07120ED0D2A6C2A58E80D2A7C2A72247
:100EE200ED7004AC078004EF2440FCEC4480FF0268
:020EF2000EF4FC
:100DCF00AE07AC0353050153060FED600343064016
:0D0DDF00430680AF06120EF4AF04020F04AD
:100CCF008B4A8A4B894C120EE2AB4AAA4BA94C12A3
:100CDF00028B6013054CE54C7002054B14F91202A0
:080CEF008BFF120F0480E222CA
:100EA9007F38120EF47F0C120EF47F06120EF47FB7
:040EB90001020EF430
:050F70007F01020EF4F8
:0A093E00024E00000450000000000B
:100B3100AF8CEFFEAD8A7C00E42DF54FEC3EF54E17
:100B4100E4F58CF58AAC4EAD4F1201D17B337A338B
:100B5100798B7841120026E4FBFA79C878421201B8
:0D0B61002F12020A8F538E528D518C50229C
:100DEC00D2A3000000000000000000000000000082
:0A0DFC0000000000000000C2A32266
:100E0600438901E4F58CF58AD2AF120DEC30A4FDCE
:0A0E1600D28C20A4FDC28C020B3127
:050F3200120F37D2A1EF
:080F37007F017E02DEFEDFFAFD
:010F3F00228F
:0F0F2300D2A0120F32C2A0120F37C2A1020F3795
:0A0F6600C2A0120F32D2A0020F3712
:020AF000AD0750
:100AF200E4FBFAEDC4131313540124FF92A0ED2575
:100B0200E0FD120F32C2A1120F370BBB08E5D2A0D3
:100B1200120F37D2A130A00F0AEAD394C840F6C20E
:0E0B2200A1120F377F0022C2A1120F377F01F0
:010B300022A2
:100D1E00E4FDFCD2A0120F37D2A1120F37EC25E062
:100D2E00FCA2A0E4334204120F37C2A1120F370DFA
:050D3E00BD08E5AF0453
:010D4300228D
:100E2000AC05A907120F237FA0120AF0AF01120A26
:090E3000F0AF04120AF0020F6693
:020DAD00AC0791
:100DAF00120F237FA0120AF0AF04120AF0120F23C2
:0F0DBF007FA1120AF0120D1EAD07120F66AF05CD
:010DCE002202
:0E0F400081838587898B8D80828486888A8C48
:1009480007370034231712511907300059211807A7
:02095800041980
:100BE400C2B500C2B600D2B500E4FEEF1392B4EF72
:100BF400C313FFD2B600C2B6000EBE08EEE4FEED8B
:100C04001392B4EDC313FDD2B600C2B6000EBE08F3
:040C1400EEC2B50077
:010C180022B9
:100A6200C2B500C2B600D2B500E4FDEF1392B4EFF6
:100A7200C313FFD2B600C2B6000DBD08EE00E4FDFE
:100A8200A2B4E433FFC43333335480FCEEC3134CBB
:100A9200FED2B600C2B6000DBD08E5C2B500D2B6A0
:090AA20000C2B400D2B400AF069A
:010AAB002228
:100D8A00E4FD7F8E120BE4E4FCEC900F4793FF74B2
:100D9A00372CF8E6FD120BE40CBC07ED7D807F8E44
:030DAA00020BE455
:100E7E00E4FBEB900F4093FF120A6274302BF8A63E
:050E8E00070BBB07ED9E
:010E9300223C
:100C7B00EF75F064842430F547EF75F06484E5F08C
:100C8B0075F00A842430F548EF75F00A84E5F024FA
:0B0C9B0030F549E4F54AFB7A00794788
:010CA600222B
:04081800AB07AA067A
:10081C007C277D101202A4EF2430F5487C277D1034
:10082C00AF03AE021202A47E037FE8CFCDCFCECCB5
:10083C00CE1202A4EF2430F5497C037DE8AF03AE61
:10084C00021202A47E007F64CFCDCFCECCCE12029A
:10085C00A4EF2430F54A7C007D64AF03AE02120293
:10086C00A47E007F0ACFCDCFCECCCE1202A4EF2433
:10087C0030F54BAE02AF037C007D0A1202A4ED24CE
:0B088C0030F54CE4F54DFB7A00794894
:01089700223E
:0C095A00044200000000043E0000000009
:100C1900C2A27F007E007D007C0020B7FDE4FBD2EC
:100C2900A27801120318C2A230B70DEF2401FFE424
:100C39003EFEE43DFDE43CFC0BBB18E3D2A2ED64AF
:040C490080FDC2A2C6
:010C4D002284
:1009C300120C198F418E408D3F8C3EC3E5419545F6
:1009D300F541E5409544F540E53F9543F53FE53E58
:1009E3009542F53E335007E4F541F540801EAF4193
:1009F300AE40AD3FAC3EEC1201CCE4FBFA7910788B
:100A03004112012F12020AE48F418E40F53FF53E59
:010A130022C0
:0C0F5A00120C198F458E448D438C4222EE
:100E94000A004654004657004E4F20485837313117
:050EA40000636D0A006F
:1004A700120E39E52270030205B8E4F522E523248C
:1004B700BA604F24F970030205A224FA70030205FB
:1004C700A524FC7003020594240360030205B8E524
:1004D70024B4531BE4F54774252547F8E6FF743722
:1004E7002547F8A6070547E547B407EB020D8AE558
:1004F70024645260030205B8FB7A0079307D070255
:100507000589E52464537046E52525E004FFAD27FA
:10051700120E20E4F5470547E547B4C8F9E4F54767
:100527000547E547B4C8F9E52525E0FFAD26120ED6
:1005370020E4F5470547E547B4C8F9E4F54705471B
:10054700E547B4C8F9E52664257066020898E524EE
:100557006452705D7BFF7A0E7996120CA77B007A46
:10056700007913AD12120CF77BFF7A0E7994120CF7
:10057700A77BFF7A0E7999120CA77B007A0079087E
:10058700AD12120CF77BFF7A0E79948021E5246473
:1005970052701E7BFF7A0E799C8013020967AE5258
:1005A700AF53120818120CA77BFF7A0E79A5120C0D
:0105B700A79C
:0105B8002220
:10002600EC4D6011E8497017ED33EC3304600DE4D4
:10003600FCFFFEFD22E933E8330470F80202761273
:10004600024158046009E4CC248150062850090274
:10005600028028400302027DC0E0EB4A7044B9806A
:1000660006D0E0FB02026CEF4E701CBD8008EBFF71
:10007600EAFEE9FD80EBE98DF0A4FEE5F002010F52
:10008600E9CDF9EAFEEBFFEF89F0A4FCE5F0CE89B5
:10009600F0A42EFFE435F0CD89F0A42DFEE435F072
:1000A6008067EF4E7005BD80D780C3EF8BF0A4ACA0
:1000B600F0EE8BF0A42CFCE435F0F8EF8AF0A42CDB
:1000C600E5F038FCE433CB8DF0A42CFCE5F03BF8EE
:1000D600EE8AF0A42CFCE5F038F8E433CF89F0A4DE
:1000E6002CFCE5F038CF3400CE89F0A42FFFE5F0E4
:1000F6003EFEE433C98DF0A42EFEE5F039CD8AF03C
:10010600A42FFFE5F03EFEE43DFD33D0E0FB5007B3
:100116000BBB000F020280EC2CFCEF33FFEE33FE2C
:06012600ED33FD0202585A
:10012C00020280EC5D046005E8590470030202765B
:10013C00120241580460F6EC4860F2EC7004FDFECB
:10014C00FF22C860DB2481C85009C39860025006A6
:10015C0002027D9850CAF582E9294B4A7005AB82A0
:10016C0002026C75F0007C1A7880C3EF9BEE9AED5E
:10017C0099400DC3EF9BFFEE9AFEED99FDE842F01E
:10018C00DC23ACF0D0E0FFD0E0FED0E0FDAB822071
:10019C00E7101BEB60BAEC2CFCEF33FFEE33FEEDFB
:1001AC0033FD020258E803F830E705C0F075F000A3
:1001BC00EF2FFFEE33FEED33FD40B830E7C280AADF
:1001CC0075F020800E75F010800575F0087D007EAE
:1001DC00007F003392D530D5031202F9EC33401076
:1001EC00EF33FFEE33FEED33FDEC33FCD5F0ED22B7
:0E01FC00E5F0247EA2D513CC92E7CDCEFF22F3
:10020A00EDD2E7CD33EC3392D524814006E4FFFEEC
:10021A00FDFC22FCE4CFCECDCC24E0501174FF804B
:10022A00EDC3CC13CCCD13CDCE13CECF13CF0470E8
:07023A00F030D5DE0202F9ED
:10024100E9D2E7C933E833F892D5EDD2E7CD33EC03
:0702510033FC5002B2D5227C
:10025800EC30E7100FBF000C0EBE00080DBD000407
:100268000BEB6014A2D5EB13FCED92E7FD2274FFB3
:10027800FCFDFEFF22E480F8A2D574FF13FC7D800C
:03028800E480EF20
:1007980002032BE493A3F8E493A34003F68001F249
:1007A80008DFF48029E493A3F85407240CC8C33362
:1007B800C4540F4420C8834004F456800146F6DF31
:1007C800E4800B0102040810204080900900E47EB8
:1007D800019360BCA3FF543F30E509541FFEE49326
:1007E800A360010ECF54C025E060A840B8E493A3ED
:1007F800FAE493A3F8E493A3C8C582C8CAC583CA18
:10080800F0A3C8C582C8CAC583CADFE9DEE780BECF
:010966000090
:10028B00BB010689828A83E0225002E722BBFE0271
:09029B00E32289828A83E49322A4
:1002A400BC000BBE0029EF8DF084FFADF022E4CC3E
:1002B400F875F008EF2FFFEE33FEEC33FCEE9DEC07
:1002C400984005FCEE9DFE0FD5F0E9E4CEFD22ED4D
:1002D400F8F5F0EE8420D21CFEADF075F008EF2F97
:1002E400FFED33FD4007985006D5F0F222C398FD88
:0502F4000FD5F0EA2225
:0E02F900C3E49FFFE49EFEE49DFDE49CFC2216
:10030700EB9FF5F0EA9E42F0E99D42F0E89C45F04C
:0103170022C3
:10031800E8600FEFC333FFEE33FEED33FDEC33FC43
:03032800D8F122E7
:00000001FF
